{
  "_format": "hh3-artifact-1",
  "contractName": "FeedFaceMultisend",
  "sourceName": "contracts/FeedFaceMultisend.sol",
  "abi": [
    {
      "inputs": [
        {
          "internalType": "address",
          "name": "sender",
          "type": "address"
        },
        {
          "components": [
            {
              "internalType": "address",
              "name": "to",
              "type": "address"
            },
            {
              "internalType": "uint256",
              "name": "amount",
              "type": "uint256"
            }
          ],
          "internalType": "struct FeedFaceMultisend.EthTransfer[]",
          "name": "ethTransfers",
          "type": "tuple[]"
        },
        {
          "components": [
            {
              "internalType": "address",
              "name": "token",
              "type": "address"
            },
            {
              "internalType": "address",
              "name": "to",
              "type": "address"
            },
            {
              "internalType": "uint256",
              "name": "amount",
              "type": "uint256"
            }
          ],
          "internalType": "struct FeedFaceMultisend.TokenTransfer[]",
          "name": "tokenTransfers",
          "type": "tuple[]"
        },
        {
          "components": [
            {
              "internalType": "address",
              "name": "token",
              "type": "address"
            },
            {
              "internalType": "uint256",
              "name": "value",
              "type": "uint256"
            },
            {
              "internalType": "uint256",
              "name": "deadline",
              "type": "uint256"
            },
            {
              "internalType": "uint8",
              "name": "v",
              "type": "uint8"
            },
            {
              "internalType": "bytes32",
              "name": "r",
              "type": "bytes32"
            },
            {
              "internalType": "bytes32",
              "name": "s",
              "type": "bytes32"
            }
          ],
          "internalType": "struct FeedFaceMultisend.Permit[]",
          "name": "permits",
          "type": "tuple[]"
        }
      ],
      "name": "disperse",
      "outputs": [],
      "stateMutability": "payable",
      "type": "function"
    }
  ],
  "bytecode": "0x6080604052348015600e575f5ffd5b506107658061001c5f395ff3fe60806040526004361061001d575f3560e01c8063284fdb9214610021575b5f5ffd5b61003461002f36600461059b565b610036565b005b5f5b818110156101b6578282828181106100525761005261067c565b61006892602060c0909202019081019150610690565b6001600160a01b031663d505accf893086868681811061008a5761008a61067c565b905060c00201602001358787878181106100a6576100a661067c565b905060c00201604001358888888181106100c2576100c261067c565b905060c0020160600160208101906100da91906106b0565b8989898181106100ec576100ec61067c565b905060c00201608001358a8a8a8181106101085761010861067c565b6040517fffffffff0000000000000000000000000000000000000000000000000000000060e08c901b1681526001600160a01b03998a166004820152989097166024890152506044870194909452606486019290925260ff16608485015260a484015260a060c090920201013560c482015260e4015f604051808303815f87803b158015610194575f5ffd5b505af11580156101a6573d5f5f3e3d5ffd5b5050600190920191506100389050565b505f805b868110156102da575f8888838181106101d5576101d561067c565b6101eb9260206040909202019081019150610690565b6001600160a01b03168989848181106102065761020661067c565b905060400201602001356040515f6040518083038185875af1925050503d805f811461024d576040519150601f19603f3d011682016040523d82523d5f602084013e610252565b606091505b50509050806102a85760405162461bcd60e51b815260206004820152601360248201527f455448207472616e73666572206661696c65640000000000000000000000000060448201526064015b60405180910390fd5b8888838181106102ba576102ba61067c565b90506040020160200135836102cf91906106e4565b9250506001016101ba565b505f5b84811015610447578585828181106102f7576102f761067c565b61030d9260206060909202019081019150610690565b6001600160a01b03166323b872dd8a88888581811061032e5761032e61067c565b90506060020160200160208101906103469190610690565b8989868181106103585761035861067c565b604080517fffffffff0000000000000000000000000000000000000000000000000000000060e089901b1681526001600160a01b0396871660048201529590941660248601526060029190910191909101356044830152506064016020604051808303815f875af11580156103cf573d5f5f3e3d5ffd5b505050506040513d601f19601f820116820180604052508101906103f391906106fd565b61043f5760405162461bcd60e51b815260206004820152601960248201527f4552433230207472616e7366657246726f6d206661696c656400000000000000604482015260640161029f565b6001016102dd565b50803411156104ed575f3361045c833461071c565b6040515f81818185875af1925050503d805f8114610495576040519150601f19603f3d011682016040523d82523d5f602084013e61049a565b606091505b50509050806104eb5760405162461bcd60e51b815260206004820152601160248201527f45544820726566756e64206661696c6564000000000000000000000000000000604482015260640161029f565b505b5050505050505050565b80356001600160a01b038116811461050d575f5ffd5b919050565b5f5f83601f840112610522575f5ffd5b50813567ffffffffffffffff811115610539575f5ffd5b602083019150836020606083028501011115610553575f5ffd5b9250929050565b5f5f83601f84011261056a575f5ffd5b50813567ffffffffffffffff811115610581575f5ffd5b60208301915083602060c083028501011115610553575f5ffd5b5f5f5f5f5f5f5f6080888a0312156105b1575f5ffd5b6105ba886104f7565b9650602088013567ffffffffffffffff8111156105d5575f5ffd5b8801601f81018a136105e5575f5ffd5b803567ffffffffffffffff8111156105fb575f5ffd5b8a60208260061b840101111561060f575f5ffd5b60209190910196509450604088013567ffffffffffffffff811115610632575f5ffd5b61063e8a828b01610512565b909550935050606088013567ffffffffffffffff81111561065d575f5ffd5b6106698a828b0161055a565b989b979a50959850939692959293505050565b634e487b7160e01b5f52603260045260245ffd5b5f602082840312156106a0575f5ffd5b6106a9826104f7565b9392505050565b5f602082840312156106c0575f5ffd5b813560ff811681146106a9575f5ffd5b634e487b7160e01b5f52601160045260245ffd5b808201808211156106f7576106f76106d0565b92915050565b5f6020828403121561070d575f5ffd5b815180151581146106a9575f5ffd5b818103818111156106f7576106f76106d056fea26469706673582212208a091e9495e07f950687b32bc6cfd559e154b908cbde426fd79613bcec32c59964736f6c634300081c0033",
  "linkReferences": {},
  "deployedLinkReferences": {},
  "immutableReferences": {},
  "inputSourceName": "project/contracts/FeedFaceMultisend.sol",
  "buildInfoId": "solc-0_8_28-57c8ae08cce626b91c2c20246e97b99473a4baa8"
}